:0400000014EF00F009
:0E000800FACFFFF5B4EF0BF0FFFF039E000CE4
:10001800D8CFF7F5E0CF10F0FACFF6F5B0EF0AF049
:10002800FFFF05EE6AF015EEDDF0C2EC16F000EE0B
:1000380023F011EEBCF0C2EC16F000EE4CF011EE1D
:1000480000F05E0EF66E000EF76E000EF86EAEEC67
:1000580016F04FEF11F0030003000300030000F057
:100068004100A04100204100204100A04200484238
:1000780000484200A041000000000000000000000D
:10008800000000964300964300964300C842AB2AFE
:100098004000204000A040000040AA8A3F00604085
:1000A80000803F00404055D542007A4200FA4200A5
:1000B800A041554143806D43002F4300A0420000FA
:1000C8000000000000000000000000000000000028
:1000D8000000000000000000000000409C450040B7
:1000E8009C4500409C4500409C450000484300005A
:1000F800484300004843000048430000A042000075
:10010800A0420000A0420000A042FFFF026A016A6C
:10011800006AFFFFE950EA1006E002C0EDFF01C0E7
:10012800EDFF00C0EFFF000CFFFF9DB29EA274EF31
:100138000AF09E928D746CC5E8FF3E0AD8A474EF4D
:100148000AF00101042B000E05230623072311EFF3
:1001580009F005017853D8B4A2EF08F005017053EF
:10016800D8A403D00501786B8C9E0101026B036B48
:1001780001010351800A800F040ED8B4025DD8B083
:1001880024EF09F00E0E026E036A02C100F003C1EB
:1001980001F08EEC16F0900E0424E96E010E052095
:1001A800EA6E200EEF6E02C100F003C101F0D89094
:1001B8000034026E0134036E4C0E0224E96E000E08
:1001C8000320EA6EEE50030AED1002C100F0D8A435
:1001D8004DEF05F003C101F0D89000360136D890F4
:1001E800003601361C0E0024E96E010E0120EA6E6D
:1001F800EECF08F1EECF09F1EECF0AF1EDCF0BF11A
:10020800ED52ED5239EF05F00E0E026E036A02C18F
:1002180000F003C101F08EEC16F08C0E0424E16EA0
:10022800010E0520E26E030E026E036A02C100F0A1
:1002380003C101F08EEC16F0540E0424E96E000E92
:100248000520EA6EEECF00F0EECF01F0EECF02F01F
:1002580002C003F001C002F000C001F0006A00C053
:10026800E6FF01C0E6FF02C0E6FF03C0E5FFE55276
:10027800E5520E0E026E036A02C100F003C101F0DE
:100288008EEC16F0880E0424E16E010E0520E26E55
:10029800030E026E036A02C100F003C101F08EEC86
:1002A80016F0540E0424E96E000E0520EA6EEECF17
:1002B80000F0EECF01F0EECF02F002C003F001C073
:1002C80002F000C001F0006A08C104F009C105F09D
:1002D8000AC106F00BC107F039EC14F000C0E6FFC4
:1002E80001C0E6FF02C0E6FF03C0E5FFE552E552A4
:1002F8000E0E026E036A02C100F003C101F08EEC1B
:1003080016F0840E0424E16E010E0520E26E030E41
:10031800026E036A02C100F003C101F08EEC16F010
:10032800540E0424E96E000E0520EA6EEECF00F0AC
:10033800EECF01F0EECF02F002C003F001C002F0F0
:1003480000C001F0006A046A056A066A3F0E076E7B
:1003580039EC14F008C104F009C105F00AC106F02F
:100368000BC107F039EC14F008C104F009C105F01D
:100378000AC106F00BC107F039EC14F000C044F0D4
:1003880001C045F002C046F003C047F0030E026EFC
:10039800036A02C100F003C101F08EEC16F06C0E86
:1003A8000424E96E000E0520EA6EEECF00F0EECFD1
:1003B80001F0EECF02F002C003F001C002F000C06D
:1003C80001F0006A44C004F045C005F046C006F0DC
:1003D80047C007F0C3EC13F000C0E6FF01C0E6FF1A
:1003E80002C0E6FF03C0E5FFE552E5526F0E046E5A
:0803F800120E056E830E066E65
:100400003B0E076E01EE08F0A0EC16F0030E026E34
:10041000036A02C100F003C101F08EEC16F0840EF5
:100420000424E96E000E0520EA6EEECF00F0EECF58
:1004300001F0EECF02F002C003F001C002F000C0F4
:1004400001F0006A00C004F001C005F002C006F02F
:1004500003C007F008C100F009C101F00AC102F0B1
:100460000BC103F029EC16F092EF06F00E0E026EAF
:10047000036A02C100F003C101F08EEC16F08C0E8D
:100480000424E96E010E0520EA6EEE6AEE6AEE6A59
:10049000ED6A0E0E026E036A02C100F003C101F0A4
:1004A0008EEC16F0880E0424E16E010E0520E26E3B
:1004B000030E026E036A02C100F003C101F08EEC6C
:1004C00016F0600E0424E96E000E0520EA6EEECFF1
:1004D00000F0EECF01F0EECF02F002C003F001C059
:1004E00002F000C001F0006A00C0E6FF01C0E6FFB4
:1004F00002C0E6FF03C0E5FFE552E5520E0E026EB4
:10050000036A02C100F003C101F08EEC16F0840E04
:100510000424E16E010E0520E26E030E026E036AF2
:1005200002C100F003C101F08EEC16F0600E04244D
:10053000E96E000E0520EA6EEECF00F0EECF01F07E
:10054000EECF02F002C003F001C002F000C001F0E3
:10055000006A08C104F009C105F00AC106F00BC128
:1005600007F039EC14F000C044F001C045F002C0BF
:1005700046F003C047F0030E026E036A02C100F0AA
:1005800003C101F08EEC16F09C0E0424E96E000EFF
:100590000520EA6EEECF00F0EECF01F0EECF02F0D4
:1005A00002C003F001C002F000C001F0006A44C0C4
:1005B00004F045C005F046C006F047C007F0C3ECA4
:1005C00013F000C0E6FF01C0E6FF02C0E6FF03C073
:1005D000E5FFE552E5526F0E046E120E056E830EB6
:1005E000066E3B0E076E01EE08F0A0EC16F0030E4F
:1005F000026E036A02C100F003C101F08EEC16F036
:10060000900E0424E96E000E0520EA6EEECF00F095
:10061000EECF01F0EECF02F002C003F001C002F015
:1006200000C001F0006A00C004F001C005F002C083
:1006300006F003C007F008C100F009C101F00AC1CB
:1006400002F00BC103F029EC16F0D8A084EF08F0FB
:100650000101086B096B0A6B0B6B05EE80F0025110
:10066000E9260351EA22030EEF6E84EF08F00E0E26
:10067000026E036A02C100F003C101F08EEC16F0B5
:100680008C0E0424E16E010E0520E26E030E026E54
:10069000036A02C100F003C101F08EEC16F0540EA3
:1006A0000424E96E000E0520EA6EEECF00F0EECFD6
:1006B00001F0EECF02F0CAEC16F002C003F001C068
:1006C00002F000C001F0006A00C0E6FF01C0E6FFD2
:1006D00002C0E6FF03C0E5FFE552E5520E0E026ED2
:1006E000036A02C100F003C101F08EEC16F0880E1F
:1006F0000424E16E010E0520E26E030E026E036A11
:1007000002C100F003C101F08EEC16F0540E042477
:10071000E96E000E0520EA6EEECF00F0EECF01F09C
:10072000EECF02F002C003F001C002F000C001F001
:10073000006A08C104F009C105F00AC106F00BC146
:1007400007F039EC14F000C044F001C045F002C0DD
:1007500046F003C047F0030E026E036A02C100F0C8
:1007600003C101F08EEC16F0600E0424E96E000E59
:100770000520EA6EEECF00F0EECF01F0EECF02F0F2
:1007800002C003F001C002F000C001F0006A44C0E2
:1007900004F045C005F046C006F047C007F0C0ECC5
:1007A00013F000C0E6FF01C0E6FF02C0E6FF03C091
:1007B000E5FFE552E5520E0E026E036A02C100F03B
:1007C00003C101F08EEC16F0840E0424E16E010EDC
:1007D0000520E26E030E026E036A02C100F003C13F
:1007E00001F08EEC16F0540E0424E96E000E052084
:1007F000EA6EEECF00F0EECF01F0EECF02F002C0D5
:1008000003F001C002F000C001F0006A046A056A4A
:10081000066A3F0E076E39EC14F008C104F009C1F6
:1008200005F00AC106F00BC107F039EC14F008C15D
:1008300004F009C105F00AC106F00BC107F039EC5C
:1008400014F000C044F001C045F002C046F003C0FF
:1008500047F0030E026E036A02C100F003C101F00B
:100860008EEC16F0600E0424E96E000E0520EA6E90
:10087000EECF00F0EECF01F0EECF02F002C003F0B9
:1008800001C002F000C001F0006A08C104F009C113
:1008900005F00AC106F00BC107F039EC14F000C0F6
:1008A00048F001C049F002C04AF003C04BF0030E0B
:1008B000026E036A02C100F003C101F08EEC16F073
:1008C000A80E0424E96E000E0520EA6EEECF00F0BB
:1008D000EECF01F0EECF02F002C003F001C002F053
:1008E00000C001F0006A48C004F049C005F04AC0E9
:1008F00006F04BC007F0C3EC13F044C004F045C051
:1009000005F046C006F047C007F0C0EC13F000C089
:10091000E6FF01C0E6FF02C0E6FF03C0E5FFE552C7
:10092000E5526F0E046E120E056E830E066E3B0EC0
:10093000076E01EE08F0A0EC16F0030E026E036ADB
:1009400002C100F003C101F08EEC16F0840E042405
:10095000E96E000E0520EA6EEECF00F0EECF01F05A
:10096000EECF02F002C003F001C002F000C001F0BF
:10097000006A00C004F001C005F002C006F003C028
:1009800007F008C100F009C101F00AC102F00BC173
:1009900003F029EC16F0D8A0B7D30101086B096B5E
:1009A0000A6B0B6B05EE80F00251E9260351EA2237
:1009B000040EEF6E05017007A7D30E0E026E036AD8
:1009C00002C100F003C101F08EEC16F08C0E04247D
:1009D000E96E010E0520EA6EEE6AEE6AEE6AED6AD5
:1009E0000E0E026E036A02C100F003C101F08EEC2C
:1009F00016F0880E0424E96E010E0520EA6EEE6AF8
:100A0000EE6AEE6AED6A0E0E026E036A02C100F033
:100A100003C101F08EEC16F0840E0424E16E010E89
:100A20000520E26E030E026E036A02C100F003C1EC
:100A300001F08EEC16F0780E0424E96E000E05200D
:100A4000EA6EEECF00F0EECF01F0EECF02F002C082
:100A500003F001C002F000C001F0006A00C0E6FF30
:100A600001C0E6FF02C0E6FF03C0E5FFE552E55224
:100A70004BD3010105EE80F00251E9260351EA2231
:100A8000EF5002E108EF01F0020A01E1EFD4010AA0
:100A900001E1EDD5070A91E037D303C101F0D89009
:100AA00000360136D890003601361C0E0024E96E5F
:100AB000010E0120EA6EEECF08F1EECF09F1EECF84
:100AC0000AF1EDCF0BF1ED52ED520FD30E0E026E87
:100AD000036A02C100F003C101F08EEC16F08C0E27
:100AE0000424E16E010E0520E26E030E026E036A1D
:100AF00002C100F003C101F08EEC16F0540E042484
:100B0000E96E000E0520EA6EEECF00F0EECF01F0A8
:100B1000EECF02F002C003F001C002F000C001F00D
:100B2000006A00C0E6FF01C0E6FF02C0E6FF03C0A6
:100B3000E5FFE552E5520E0E026E036A02C100F0B7
:100B400003C101F08EEC16F0880E0424E16E010E54
:100B50000520E26E030E026E036A02C100F003C1BB
:100B600001F08EEC16F0540E0424E96E000E052000
:100B7000EA6EEECF00F0EECF01F0EECF02F002C051
:100B800003F001C002F000C001F0006A08C104F0E7
:100B900009C105F00AC106F00BC107F039EC14F0E9
:100BA00000C0E6FF01C0E6FF02C0E6FF03C0E5FFAC
:100BB000E552E5520E0E026E036A02C100F003C157
:100BC00001F08EEC16F0840E0424E16E010E052077
:100BD000E26E030E026E036A02C100F003C101F06F
:100BE0008EEC16F0540E0424E96E000E0520EA6E19
:100BF000EECF00F0EECF01F0EECF02F002C003F036
:100C000001C002F000C001F0006A046A056A066AC9
:100C10003F0E076E39EC14F008C104F009C105F06D
:100C20000AC106F00BC107F039EC14F008C104F05A
:100C300009C105F00AC106F00BC107F039EC14F048
:100C400000C044F001C045F002C046F003C047F0C8
:100C5000030E026E036A02C100F003C101F08EECC4
:100C600016F06C0E0424E96E000E0520EA6EEECF3D
:100C700000F0EECF01F0EECF02F002C003F001C0B1
:100C800002F000C001F0006A44C004F045C005F065
:100C900046C006F047C007F0C3EC13F000C0E6FF03
:100CA00001C0E6FF02C0E6FF03C0E5FFE552E552E2
:100CB0006F0E046E120E056E830E066E3B0E076EEF
:100CC00001EE08F0A0EC16F0030E026E036A02C1FA
:100CD00000F003C101F08EEC16F0840E0424E96EDE
:100CE000000E0520EA6EEECF00F0EECF01F0EECF61
:100CF00002F002C003F001C002F000C001F0006A7F
:100D000000C004F001C005F002C006F003C007F007
:100D100008C100F009C101F00AC102F00BC103F0E3
:100D200029EC16F0D8A0F0D10101086B096B0A6B11
:100D30000B6B05EE80F00251E9260351EA22020E08
:100D400093D40E0E026E036A02C100F003C101F0DB
:100D50008EEC16F08C0E0424E16E010E0520E26E7E
:100D6000030E026E036A02C100F003C101F08EECB3
:100D700016F0540E0424E96E000E0520EA6EEECF44
:100D800000F0EECF01F0EECF02F0CAEC16F002C098
:100D900003F001C002F000C001F0006A00C0E6FFED
:100DA00001C0E6FF02C0E6FF03C0E5FFE552E552E1
:100DB0000E0E026E036A02C100F003C101F08EEC58
:100DC00016F0880E0424E16E010E0520E26E030E7B
:100DD000026E036A02C100F003C101F08EEC16F04E
:100DE000540E0424E96E000E0520EA6EEECF00F0EA
:100DF000EECF01F0EECF02F002C003F001C002F02E
:100E000000C001F0006A08C104F009C105F00AC180
:100E100006F00BC107F039EC14F000C044F001C03B
:100E200045F002C046F003C047F0030E026E036AAD
:100E300002C100F003C101F08EEC16F0B40E0424E0
:100E4000E96E000E0520EA6EEECF00F0EECF01F065
:100E5000EECF02F002C003F001C002F000C001F0CA
:100E6000006A44C004F045C005F046C006F047C023
:100E700007F0C0EC13F000C0E6FF01C0E6FF02C0BF
:100E8000E6FF03C0E5FFE552E5520E0E026E036A6F
:100E900002C100F003C101F08EEC16F0840E0424B0
:100EA000E16E010E0520E26E030E026E036A02C1BE
:100EB00000F003C101F08EEC16F0540E0424E96E2C
:100EC000000E0520EA6EEECF00F0EECF01F0EECF7F
:100ED00002F002C003F001C002F000C001F0006A9D
:100EE000046A056A066A3F0E076E39EC14F008C101
:100EF00004F009C105F00AC106F00BC107F039EC96
:100F000014F008C104F009C105F00AC106F00BC1D4
:100F100007F039EC14F000C044F001C045F002C005
:100F200046F003C047F0030E026E036A02C100F0F0
:100F300003C101F08EEC16F0B40E0424E96E000E2D
:100F40000520EA6EEECF00F0EECF01F0EECF02F01A
:100F500002C003F001C002F000C001F0006A08C145
:100F600004F009C105F00AC106F00BC107F039EC25
:100F700014F000C048F001C049F002C04AF003C0BC
:100F80004BF0030E026E036A02C100F003C101F0D0
:100F90008EEC16F09C0E0424E96E000E0520EA6E1D
:100FA000EECF00F0EECF01F0EECF02F002C003F082
:100FB00001C002F000C001F0006A48C004F049C05E
:100FC00005F04AC006F04BC007F0C3EC13F044C074
:100FD00004F045C005F046C006F047C007F0C0EC7D
:100FE00013F000C0E6FF01C0E6FF02C0E6FF03C049
:100FF000E5FFE552E5526F0E046E120E056E830E8C
:10100000066E3B0E076E01EE08F0A0EC16F0030E24
:10101000026E036A02C100F003C101F08EEC16F00B
:10102000840E0424E96E000E0520EA6EEECF00F077
:10103000EECF01F0EECF02F002C003F001C002F0EB
:1010400000C001F0006A00C004F001C005F002C059
:1010500006F003C007F008C100F009C101F00AC1A1
:1010600002F00BC103F029EC16F095D40E0E026EBF
:10107000036A02C100F003C101F08EEC16F08C0E81
:101080000424E96E010E0520EA6EEE6AEE6AEE6A4D
:10109000ED6A0E0E026E036A02C100F003C101F098
:1010A0008EEC16F0880E0424E96E010E0520EA6E1F
:1010B000EE6AEE6AEE6AED6A0E0E026E036A02C115
:1010C00000F003C101F08EEC16F0840E0424E16EF2
:1010D000010E0520E26E030E026E036A02C100F0EB
:1010E00003C101F08EEC16F0A6D4010105EE80F0EC
:1010F0000251E9260351EA22EF5001E1E7D4020A46
:1011000001E11FD6060AB2E002C100F003C101F0FE
:10111000D89000360136D890003601361C0E0024D7
:10112000E96E010E0120EA6E08C1EEFF09C1EEFF73
:101130000AC1EEFF0BC1EEFF0101022B000E0323DB
:10114000BCEF00F00101906B9E6BAC6BBA6B846BD3
:10115000926BA06BAE6B78D005017753D8B40BD0EF
:101160007CC584F17DC592F17EC5A0F17FC5AEF14D
:101170000501776B54D00101846B926BA06BAE6B51
:101180004ED06FC5E8FF0F0AD8A415D000016C6BD4
:101190006D6B6E6B6F6B706B716B726B736B746B73
:1011A000756B766B776B010EE8CF7BF5D30EE8CFCE
:1011B0006BF58C988C9A010164A102D005016F81B6
:1011C00001016EA102D005016F83010178A102D057
:1011D00005016F85010182A102D005016F8705011C
:1011E0006FB102D0EC0E01D0000EE8CF84F1050102
:1011F0006FB302D0EC0E01D0000EE8CF92F10501E2
:101200006FB502D0BA0E01D0000EE8CFA0F10501F3
:101210006FB702D0EC0E01D0000EE8CFAEF10101A5
:101220000FD06BC5E8FF5A0A02E1ADEF00F0FF0AEC
:1012300093E0190AA6E00101846B926BA06BAE6B80
:10124000906B9E6BAC6BBA6B05016D6B49D0050161
:10125000736B40D089680AD0899014D0899212D0DB
:10126000899410D089960ED089980CD073C5E8FF68
:10127000000AF2E0010AF2E0030AF2E0010AF2E0F9
:10128000070AF2E073C5E8FF0E0D6DC5E8FFF3260F
:10129000000EF422840EF324E96E010EF420EA6EAF
:1012A000EF50C96EC7A0FED7090E05016D6110D0C1
:1012B00073C5E8FF0A0D6DC5E8FFF326000EF422A2
:1012C0005C0EF324E96E010EF420EA6EC9CFEFFF45
:1012D0000501732B030E05017365BCD705016D2B4A
:1012E0000C0E05016D65B3D75CC10CF15DC10DF14C
:1012F0005EC10EF15FC10FF166C110F167C111F15E
:1013000068C112F169C113F170C114F171C115F115
:1013100072C116F173C117F17AC118F17BC119F1CD
:101320007CC11AF17DC11BF10501726B5BD0050117
:101330006D6B52D00501736B49D089680AD08990D2
:1013400014D0899212D0899410D089960ED08998A1
:101350000CD073C5E8FF000AF2E0010AF2E0030ACC
:10136000F2E0010AF2E0070AF2E072C5E8FF0A0DB6
:101370006DC5E8FFF326000EF4225C0EF324E96E3F
:10138000010EF420EA6EEF50C96EC7A0FED705012A
:101390007253D8A419D06DC5E8FF73C500F0016A77
:1013A000D89000360136D89000360136D8900036F5
:1013B00001360026000E01223C0E0024E96E010ECB
:1013C0000120EA6EC9CFEFFF0501732B030E050163
:1013D0007365B3D705016D2B070E05016D65AAD79F
:1013E0000501722B030E05017265A1D789680501FD
:1013F0007953D8A479D00501766B0501726B24D09E
:1014000005016D6B1BD072C5E8FF0A0D6DC5E8FFC5
:10141000F326000EF4225C0EF324E16E010EF4209C
:10142000E26E76C5E8FF05EE94F0E926000EEA22AA
:10143000E7CFEFFF0501762B05016D2B080E0501A7
:101440006D65E1D70501722B030E05017265D8D7D2
:10145000726B2DD005016D6B24D06DC5E8FF72C590
:1014600000F0016AD89000360136D8900036013677
:10147000D890003601360026000E01223C0E0024D2
:10148000E16E010E0120E26E76C5E8FF05EE94F0F4
:10149000E926000EEA22E7CFEFFF0501762B0501D2
:1014A0006D2B070E05016D65D8D70501722B030E54
:1014B00005017265CFD776C5E8FF05EE94F0E92601
:1014C000000EEA2204C1EEFF05C1EEFF06C1EEFFE9
:1014D00007C1EEFF0501040E7627A50EE8CFDCF567
:1014E000766B010EE8CF79F5DDC5F3FFDEC5F4FFBD
:1014F000DFC5F5FFE0C5F6FFE1C5F7FFE2C500F087
:10150000E3C501F0E4C502F0E5C503F0E6C504F06B
:10151000E7C505F0E8C506F0E9C507F0EAC508F03B
:10152000EBC509F0ECC50AF0EDC50BF0EEC50CF00B
:10153000EFC50DF0F0C50EF0F1C5E2FFF2C5E1FF19
:10154000F3C5EAFFF4C5E9FFF5C5E8FFF6C5FAFF04
:1015500010C0E0FFF7C5D8FF1000FFFF99EF00F0C3
:10156000FFFFE8CFF5F5E9CFF4F5EACFF3F5E1CFEA
:10157000F2F5E2CFF1F50EC0F0F50DC0EFF50CC0BD
:10158000EEF50BC0EDF50AC0ECF509C0EBF508C0AF
:10159000EAF507C0E9F506C0E8F505C0E7F504C0BF
:1015A000E6F503C0E5F502C0E4F501C0E3F500C0CF
:1015B000E2F5F7CFE1F5F6CFE0F5F5CFDFF5F4CFC3
:1015C000DEF5F3CFDDF598EF00F0FFFF9DBA9EAAA0
:1015D000B8D09E9AAECF71F505016A53D8B44ED0FB
:1015E00060D06CC5E8FF3E0AD8A4ABD005016A6B99
:1015F000D30EE8CF6BF50BD00101046B056B066BC6
:10160000076B3E0EE8CF6CF59CD005016C6B8C9897
:1016100019D06CC5E8FF3E0AD8A493D005016A6BC7
:10162000BC0EE8CF6BF505016F6B8C881AD06CC5CA
:10163000E8FF3E0AD8A485D005016A6BA50EE8CF65
:101640006BF58C888C9A7DD06CC5E8FF3E0AD8A4D7
:1016500078D00501786B05016A6B5A0EE8CF6BF5FF
:101660008C988C8A6ED0020E01D0030EE8CF6AF5FA
:101670000501756B66D005016A6B63D071C5E8FF23
:101680003E0ABAE0640AE0E0330AEDE0FF0AEDE06A
:10169000330ACDE0190ABDE06F0AA3E0350AB5E0D0
:1016A000EAD775C5E8FF05EE84F0E926000EEA22C8
:1016B00071C5EFFF0501752B3ED075C5E8FF040A23
:1016C000D8A43FD084C57CF585C57DF586C57EF55B
:1016D00087C57FF5010EE8CF77F5CDD775C5E8FF53
:1016E000100AD8A42ED005017A53D8A420D084C5DE
:1016F0002CF185C52DF186C52EF187C52FF188C542
:1017000030F189C531F18AC532F18BC533F18CC511
:1017100034F18DC535F18EC536F18FC537F190C5E1
:1017200038F191C539F192C53AF193C53BF1010EFB
:10173000E8CF7AF5A0D76AC5E8FF020ABEE0010A41
:10174000CDE0F8C5F3FFF9C5F4FFFAC5F5FFFBC519
:10175000F6FFFCC5F7FFFDC5EAFFFEC5E9FFFFC5C3
:10176000FAFF1100FFFF32D7FFFFE9CFFEF5EACF06
:10177000FDF5F7CFFCF5F6CFFBF5F5CFFAF5F4CF95
:10178000F9F5F3CFF8F521D7FFFF010EE8CF6CF59F
:101790000501796B0501776B05017A6B05017B6BA0
:1017A0000501786BF28CF28ED08E0101046B056B13
:1017B000066B076BF90ECB6E4E0ECA6E9F929E9211
:1017C0009D82929A9694899A8D9493849386938815
:1017D000938A9598959A959C959E8C988C9A8C9CBA
:1017E0008C9E0501766B0501756B949C948EAC6A9A
:1017F000AB88AC84AC8A810EAF6E9F8A9E9A9D8A1C
:10180000AB8ED30EE8CF6BF505016A6B0501736BE8
:1018100005016D6B0501726B949A94969488929071
:1018200092929294929692988980898289848986EC
:101830008988C96AC76AC698C78C010EC66EC68AEF
:101840001200FFFFA2D7FFFF0001236F2351040DF9
:10185000C00EF324E96E000EF420EA6EEECF04F021
:10186000EECF05F0EECF06F0EECF07F02351030DDB
:101870006C0EF324E96E000EF420EA6EEECF00F059
:10188000EECF01F0EECF02F002C003F001C002F093
:1018900000C001F0006A29EC16F0D8B025D0235121
:1018A000040DC00EF324E96E000EF420EA6EEECFB4
:1018B00000F0EECF01F0EECF02F0EECF03F001C06A
:1018C00000F002C001F003C002F02351030D6C0EC2
:1018D000F324E96E000EF420EA6E00C0EEFF01C0B2
:1018E000EEFF02C0EDFFED5200012351030D6C0E1F
:1018F000F324E96E000EF420EA6EEECF00F0EECF96
:1019000001F0EECF02F002C003F001C002F000C00F
:1019100001F0006A00C004F001C005F002C006F04A
:1019200003C007F02351040DD00EF324E96E000E1E
:10193000F420EA6EEECF00F0EECF01F0EECF02F031
:10194000EECF03F029EC16F0D8B025D02351040DCA
:10195000D00EF324E96E000EF420EA6EEECF00F014
:10196000EECF01F0EECF02F0EECF03F001C000F0B9
:1019700002C001F003C002F02351030D6C0EF324EA
:10198000E96E000EF420EA6E00C0EEFF01C0EEFF2B
:1019900002C0EDFFED5200012351040DC00EF324EF
:1019A000E96E000EF420EA6EEECF04F0EECF05F003
:1019B000EECF06F0EECF07F02351030D780EF3249F
:1019C000E96E000EF420EA6EEECF00F0EECF01F0EB
:1019D000EECF02F002C003F001C002F000C001F03F
:1019E000006A29EC16F0D8B025D02351040DC00EA2
:1019F000F324E96E000EF420EA6EEECF00F0EECF95
:101A000001F0EECF02F0EECF03F001C000F002C013
:101A100001F003C002F02351030D780EF324E96EA8
:101A2000000EF420EA6E00C0EEFF01C0EEFF02C01F
:101A3000EDFFED5200012351030D780EF324E96E02
:101A4000000EF420EA6EEECF00F0EECF01F0EECF04
:101A500002F002C003F001C002F000C001F0006A11
:101A600000C004F001C005F002C006F003C007F09A
:101A70002351040DD00EF324E96E000EF420EA6E1B
:101A8000EECF00F0EECF01F0EECF02F0EECF03F09C
:101A900029EC16F0D8B025D02351040DD00EF32434
:101AA000E96E000EF420EA6EEECF00F0EECF01F00A
:101AB000EECF02F0EECF03F001C000F002C001F063
:101AC00003C002F02351030D780EF324E96E000EDB
:101AD000F420EA6E00C0EEFF01C0EEFF02C0EDFF91
:101AE000ED5200012351030D6C0EF324E96E000E3C
:101AF000F420EA6EEECF03F0EECF04F0EECF05F067
:101B00002351030D780EF324E96E000EF420EA6EE3
:101B1000EECF00F0EECF01F0EECF02F0055002184C
:101B200005E10450011802E103500018D8A402D0C6
:101B3000000EB1D300012351030D6C0EF324E96EA6
:101B4000000EF420EA6EEECF03F0EECF04F0EECFFD
:101B500005F02351030D780EF324E96E000EF420F6
:101B6000EA6EEECF00F0EECF01F0EECF02F048ECDF
:101B700016F0006A016A800E026ED8A002D03F0EF5
:101B800001D0BF0E036E2351040DF00EF324E96E55
:101B9000000EF420EA6EEECF04F0EECF05F0EECFAB
:101BA00006F0EECF07F039EC14F001C000F002C0EF
:101BB00001F003C002F02351030D540EF324E96E2B
:101BC000000EF420EA6E00C0EEFF01C0EEFF02C07E
:101BD000EDFFED522351030D6C0EF324E96E000E60
:101BE000F420EA6EEECF03F0EECF04F0EECF05F076
:101BF0002351030D780EF324E96E000EF420EA6EF3
:101C0000EECF00F0EECF01F0EECF02F048EC16F090
:101C1000006A016A800E026ED8A002D03F0E01D089
:101C2000BF0E036E2351040DE00EF324E96E000E87
:101C3000F420EA6EEECF04F0EECF05F0EECF06F022
:101C4000EECF07F039EC14F001C000F002C001F053
:101C500003C002F02351030D600EF324E96E000E61
:101C6000F420EA6E00C0EEFF01C0EEFF02C0EDFFFF
:101C7000ED522351030D6C0EF324E96E000EF42097
:101C8000EA6EEECF00F0EECF01F0EECF02F000C032
:101C900024F001C025F002C026F02351030D780E78
:101CA000F324E96E000EF420EA6EEECF00F0EECFE2
:101CB00001F0EECF02F024C003F025C004F026C0EE
:101CC00005F0DFEC14F002C003F001C002F000C028
:101CD00001F0006A00C000F001C001F002C002F093
:101CE00003C003F008EC00F000C027F001C028F0AA
:101CF00002C029F003C02AF000012351040DE00EB8
:101D0000F324E96E000EF420EA6EEECF04F0EECF7D
:101D100005F0EECF06F0EECF07F02351040DE00EF4
:101D2000F324E96E000EF420EA6EEECF00F0EECF61
:101D300001F0EECF02F0EECF03F039EC14F02351B6
:101D4000040DF00EF324E96E000EF420EA6EEECFDF
:101D500004F0EECF05F0EECF06F0EECF07F00CEC7E
:101D600015F027C004F028C005F029C006F02AC0ED
:101D700007F029EC16F0D8B078D12351020D4C0EA3
:101D8000F324E96E000EF420EA6E030EEE6EED6AA7
:101D90002351030D6C0EF324E96E000EF420EA6E5D
:101DA000EECF00F0EECF01F0EECF02F000C024F055
:101DB00001C025F002C026F0006A016A400E026EE2
:101DC00000C027F001C028F002C029F02351030D04
:101DD000540EF324E96E000EF420EA6EEECF00F00C
:101DE000EECF01F0EECF02F027C003F028C004F0E0
:101DF00029C005F050EC15F000C02AF001C02BF00E
:101E000002C02CF02351030D600EF324E96E000E86
:101E1000F420EA6EEECF00F0EECF01F0EECF02F04C
:101E200000C02DF001C02EF002C02FF02351030D91
:101E3000600EF324E96E000EF420EA6EEECF00F09F
:101E4000EECF01F0EECF02F02DC003F02EC004F073
:101E50002FC005F050EC15F02AC003F02BC004F0A1
:101E60002CC005F08DEC15F024C003F025C004F063
:101E700026C005F0E2EC14F02351030D9C0EF32470
:101E8000E96E000EF420EA6E00C0EEFF01C0EEFF26
:101E900002C0EDFFED522351030D6C0EF324E96EE9
:101EA000000EF420EA6EEECF00F0EECF01F0EECFA0
:101EB00002F000C024F001C025F002C026F023513A
:101EC000030D9C0EF324E96E000EF420EA6EEECFB3
:101ED00000F0EECF01F0EECF02F024C003F025C0F9
:101EE00004F026C005F0DFEC14F000C027F001C0BC
:101EF00028F002C029F02351030D780EF324E96E77
:101F0000000EF420EA6EEECF00F0EECF01F0EECF3F
:101F100002F027C003F028C004F029C005F0DFEC70
:101F200014F02351030DA80EF324E96E000EF420E3
:101F3000EA6E00C0EEFF01C0EEFF02C0EDFFED5201
:101F40002351030D540EF324E96E000EF420EA6EC3
:101F5000EECF00F0EECF01F0EECF02F000C024F0A3
:101F600001C025F002C026F02351030D600EF324BA
:101F7000E96E000EF420EA6EEECF00F0EECF01F035
:101F8000EECF02F024C003F025C004F026C005F017
:101F90008DEC15F02351030D840EF324E96E000E31
:101FA000F420EA6E00C0EEFF01C0EEFF02C0EDFFBC
:101FB000ED522351030D600EF324E96E000EF42060
:101FC000EA6EEECF00F0EECF01F0EECF02F000C0EF
:101FD00024F001C025F002C026F02351030D9C0E11
:101FE000F324E96E000EF420EA6EEECF00F0EECF9F
:101FF00001F0EECF02F000C027F001C028F002C0CF
:1020000029F02351030DA80EF324E96E000EF420ED
:10201000EA6EEECF00F0EECF01F0EECF02F027C077
:1020200003F028C004F029C005F0DFEC14F024C050
:1020300003F025C004F026C005F08DEC15F0235107
:10204000030D900EF324E96E000EF420EA6E00C03A
:10205000EEFF01C0EEFF02C0EDFFED522351030D74
:10206000B40EF324E96E000E0FD100012351020DCE
:102070004C0EF324E96E000EF420EA6E020EEE6EB2
:10208000ED6A2351030D540EF324E96E000EF42083
:10209000EA6EEECF00F0EECF01F0EECF02F000C01E
:1020A00024F001C025F002C026F02351030D6C0E70
:1020B000F324E96E000EF420EA6EEECF00F0EECFCE
:1020C00001F0EECF02F000C027F001C028F002C0FE
:1020D00029F02351030D780EF324E96E000EF4204D
:1020E000EA6EEECF00F0EECF01F0EECF02F027C0A7
:1020F00003F028C004F029C005F0DFEC14F024C080
:1021000003F025C004F026C005F08DEC15F002C0E8
:1021100003F001C002F000C001F0006A00C030F01E
:1021200001C031F002C032F003C033F083EC12F092
:1021300001C000F002C001F003C002F00001235111
:10214000030D840EF324E96E000EF420EA6E00C045
:10215000EEFF01C0EEFF02C0EDFFED52006A016A22
:10216000400E026E00C024F001C025F002C026F02F
:102170002351030D780EF324E96E000EF420EA6E6D
:10218000EECF00F0EECF01F0EECF02F000C027F06E
:1021900001C028F002C029F02351030D6C0EF32476
:1021A000E96E000EF420EA6EEECF00F0EECF01F003
:1021B000EECF02F027C003F028C004F029C005F0DC
:1021C000E2EC14F024C003F025C004F026C005F0B2
:1021D0008DEC15F02351030D9C0EF324E96E000ED7
:1021E000F420EA6E00C0EEFF01C0EEFF02C0EDFF7A
:1021F000ED522351030D840EF324E96E000EF420FA
:10220000EA6EEECF00F0EECF01F0EECF02F000C0AC
:1022100024F001C025F002C026F02351030D540E16
:10222000F324E96E000EF420EA6EEECF00F0EECF5C
:1022300001F0EECF02F024C003F025C004F026C068
:1022400005F050EC15F02351030DB40EF324E96EA4
:10225000000EF420EA6E00C0EEFF01C0EEFF02C0E7
:10226000EDFFED522351030DA80EF324E96E000E8D
:10227000F420EA6EEE6AEE6AED6AED522351030D28
:10228000900EF324E96E000EF420EA6EEE6AEE6A18
:10229000ED6AED52010E1200FFFF24EF0CF0FFFF7C
:1022A00005016E6BC4EC0BF00101006B016B0101C9
:1022B0000151800A320F200ED8B4005DD8B005D08D
:1022C0000101002B000E0123F2D7010EE8CF6EF5BD
:1022D0006BC5E8FF5A0AD8A4FCD005017B53D8B4DB
:1022E000F8D005017A53D8B4F4D005017853D8A4B6
:1022F000F0D00CC100F00DC101F00EC102F00FC111
:1023000003F001C000F002C001F003C002F000C001
:102310006CF001C06DF002C06EF010C100F011C190
:1023200001F012C102F013C103F001C000F002C0BD
:1023300001F003C002F000C06FF001C070F002C0F5
:1023400071F014C100F015C101F016C102F017C1FF
:1023500003F001C000F002C001F003C002F000C0B1
:1023600072F001C073F002C074F018C100F019C11E
:1023700001F01AC102F01BC103F001C000F002C05D
:1023800001F003C002F000C075F001C076F002C099
:1023900077F02CC100F02DC101F02EC102F02FC149
:1023A00003F001C000F002C001F003C002F000C061
:1023B00078F001C079F002C07AF030C100F031C18C
:1023C00001F032C102F033C103F001C000F002C0DD
:1023D00001F003C002F000C07BF001C07CF002C03D
:1023E0007DF034C100F035C101F036C102F037C1D3
:1023F00003F001C000F002C001F003C002F000C011
:102400007EF001C07FF002C080F038C100F039C119
:1024100001F03AC102F03BC103F001C000F002C07C
:1024200001F003C002F000C081F001C082F002C0E0
:1024300083F00501706B0501746B0101006B016B8A
:1024400001010151800A800F040ED8B4005DD8B09C
:1024500036D000C100F001C101F0D890003601363D
:10246000D890003601361C0E0024E96E010E0120C2
:10247000EA6EEE6AEE6AEE6AED6A010105EE80F040
:102480000051E9260151EA22040EEF6E00C1E8FF77
:1024900023EC0CF00009D8B40DD0010EE8CF74F590
:1024A000010105EE80F00051E9260151EA22EF6AB0
:1024B0000501702B0101002B000E0123C1D705017E
:1024C0007453D8B404D0010EE8CF78F58C8E050192
:1024D0007A6B05017953D8B4FBD6ACA2FED776C58A
:1024E000E8FF05EE94F0E926000EEA22EF50AD6E0B
:1024F0000501762B76C5E8FF490AD8A4E9D605017F
:10250000796BE6D63000FFFF30C004F031C005F033
:1025100032C006F033C007F0000E006A016A026A9A
:10252000036A29EC16F0D8A006D0000E006A016AF2
:10253000026A036AE9D030C03AF031C03BF032C0E1
:102540003CF033C03DF0046A056A800E066E3F0E13
:10255000076E3AC000F03BC001F03CC002F03DC045
:1025600003F029EC16F0D8B018D03AC004F03BC004
:1025700005F03CC006F03DC007F0006A016A800E1D
:10258000026E3F0E036E0CEC15F000C03AF001C075
:102590003BF002C03CF003C03DF03AC03EF03BC00F
:1025A0003FF03CC040F03DC041F00001340E426FAE
:1025B000000E436FFBEC15F000C03AF001C03BF099
:1025C00002C03CF003C03DF03AC03EF03BC03FF0DB
:1025D0003CC040F03DC041F0020E026E036A34C0C0
:1025E00000F035C001F066EC16F004C042F005C002
:1025F00043F017EC16F000C03AF001C03BF002C007
:102600003CF003C03DF0046A056A800E066E3F0E82
:10261000076E30C000F031C001F032C002F033C0AC
:1026200003F029EC16F0D8B018D03AC004F03BC043
:1026300005F03CC006F03DC007F0006A016A800E5C
:10264000026E3F0E036E0CEC15F000C03AF001C0B4
:102650003BF002C03CF003C03DF0140EF66EF76A8A
:102660003AC004F03BC005F03CC006F03DC007F0A6
:1026700030C000F031C001F032C002F033C003F0CE
:102680000CEC15F03AC004F03BC005F03CC006F07D
:102690003DC007F0C3EC13F0046A056A066A400EF9
:1026A000076E0CEC15F000C036F001C037F002C028
:1026B00038F003C039F000013D51391908E13C51AF
:1026C000381905E13B51371902E13A513619D8B4AE
:1026D00013D036C03AF037C03BF038C03CF039C0B8
:1026E0003DF0F60EE96E0F0EEA6EEE06000EED5AA4
:1026F000EE50ED10D8A4B4D73AC000F03BC001F0C2
:102700003CC002F03DC003F01200FFFFFDD60C50AC
:102710000D5C1BE3E80F06E3026A016A006A0D50D4
:102720000C6E12000C500D5CFCE0F80F08E3080E74
:102730000C260150006E0250016E026AF3D703327C
:102740000232013200320C2AEDD70D500C5CE80F3A
:1027500004E3066A056A046A12000D500C5CE1E0AD
:10276000F80F08E3080E0D260550046E0650056E9E
:10277000066AF3D707320632053204320D2AEDD746
:10278000FFFF800E071AFFFFE96AEA6AFFFFEBEC22
:1027900013F0FAEC13F0BBDF0EB0B6EC16F00EA29D
:1027A00009D0041E051E061E071E000E042A05225F
:1027B000062207220450002605500122065002225C
:1027C000075003220E6A03AE16EF14F0B6EC16F0B3
:1027D0000E8016EF14F0FFFF0E6A023403340C6E05
:1027E00004E00E36036A028E1200006A016A026A71
:1027F000036A000CFFFF0E92063407340D6E05E0ED
:10280000D8B00E82076A068E12000D6A046A056A45
:10281000066A076A1200FFFF0C50E7E0029E0E32C4
:102820000C30036ED8B0028E81EF16F0FFFF0C5211
:102830001EE003500DE0030404E1002A01220222FD
:102840000322D89003320232013200320C2AEED732
:1028500000500110021003100AE002BEDCD70C4E3B
:102860007CEF16F0D890003601360236F6D77CEFB2
:1028700016F0FFFFE96AEA6AFFFFEBEC13F0FAECEF
:1028800013F0086A096A0A6A0B6A070E076ED89085
:1028900006320532043208E30050082601500922AE
:1028A00002500A2203500B22D8900036013602361D
:1028B0000336072EECD7110E076E05D0D8900B32D9
:1028C0000A3209320832D89006320532043208E35F
:1028D000005008260150092202500A2203500B2200
:1028E000072EECD77A0E0D240C260E300E1A085047
:1028F000006E0950016E0A50026E0B50036E16EF07
:1029000014F0FFFF086A01340234066E04E0083652
:10291000026A018E1200006A016A026A000CFFFF5F
:10292000089204340534076E05E0D8B00882056AC1
:10293000048E1200076A036A046A056A12000650D0
:10294000EAE0019E08320630026ED8B0018E8DEFAB
:1029500000F0FFFF06520DE189EF00F0020403E1F1
:10296000002A01220222D890023201320032062AC5
:10297000F0D70266F3D700500110EEE001BEDFD7BA
:10298000064E89EF00F0D89000360136F7D7FFFFEA
:102990000650075C0AE3D8B41200D8900232013224
:1029A0000032062A0650075CF6D7D890053204326A
:1029B0000332072A06500718D8B41200F6D7FFFFD3
:1029C000800E051AFFFFE96AEA6AFFFF81EC14F046
:1029D0008FEC14F0DCDF08B017D808A207D0031E74
:1029E000041E051E000E032A0422052203500026A1
:1029F0000450012205500222086A02AEA9EF14F029
:102A000003D80880A9EF14F0001E011E021E000E5C
:102A1000002A012202221200FFFFE96AEA6AFFFF90
:102A2000EBEC13F0FAEC13F0FFFF086A096A0A6A8C
:102A30000B6A0C52D8B412000D50D8B412000C5CC2
:102A4000770F0C6E0E300E1A200E076ED8900836D7
:102A500009360A360B36036609D00650025C05E1DA
:102A60000550015C02E10450005C09E30450005E83
:102A70000550015A0650025AD8A003060880D89083
:102A80000036013602360336072EE0D70850006EB6
:102A90000950016E0A50026E0B50036E16EF14F0CF
:102AA000FFFFE96AEA6AFFFF81EC14F08FEC14F093
:102AB000096A0A6A0B6A070E056ED890043203325F
:102AC00006E30050092601500A2202500B22D8903A
:102AD000003601360236052EF0D7090E056E04D0F9
:102AE000D8900B320A320932D8900432033206E30E
:102AF0000050092601500A2202500B22052EF0D761
:102B00007A0E072406260830081A0950006E0A506B
:102B1000016E0B50026EA9EF14F0FFFFE96AEA6A3A
:102B2000FFFF81EC14F08FEC14F0FFFF096A0A6AD2
:102B30000B6A065202E00750D8B41200065C770F09
:102B4000066E0830081A180E056ED89009360A3637
:102B50000B36026606D00450015C02E10350005CB3
:102B600007E30350005E0450015AD8A00206098012
:102B7000D890003601360236052EE7D70950006E90
:102B80000A50016E0B50026EA9EF14F0FFFF066AA7
:102B9000FFFF046A056A0250031003E1006A016A3C
:102BA000000C1F0E0612D890062A02360336FCE3EC
:102BB000033202320250005C0350015804E3016EFC
:102BC0000250005ED88004360536062E06BAF0D7CD
:102BD00006AE05D0041E042AD8B40506051E04500E
:102BE000026E0550036E06AC000C001E002AD8B41D
:102BF0000106011E000CFFFF000142C0E9FF43C0B7
:102C0000EAFF40354135EF6E7E0EEE5EEF6AD8A0EA
:102C1000EF0641357E0E416F4133409F3EC000F0CC
:102C20003FC001F040C002F041C003F0000CFFFFC4
:102C300000014037413542254137416F4133403330
:102C40003EC000F03FC001F040C002F041C003F0C0
:102C5000000CFFFF03500718800B04E007340750F7
:102C600001091200039E07507F0B035C0AE1065026
:102C7000025C07E10550015C04E10450005CD8B43B
:102C800012000734D8B0010A076E0730020912009B
:102C9000FFFF02500518800BD8B404D0053405504E
:102CA00001091200029E05507F0B025C07E10450EF
:102CB000015C04E10350005CD8B41200D850020952
:102CC00005BE010AD86ED8B080091200FFFF066A5F
:102CD00001AE06D0001E004A0106011E068C068EBB
:102CE0000350800B061A03AEC8EF15F0021E024A0D
:102CF0000306031EC8EF15F0FFFF036A026A016AAC
:102D0000006AFFFFE950EA1008E003C0EDFF02C0CF
:102D1000EDFF01C0EDFF00C0EFFF000CFFFF025010
:102D20000002F3CF04F0F4CF05F00102F3500526C2
:102D300003500002F35005261200FFFF800E071A11
:102D4000FFFFEECF00F0EECF01F0EECF02F0EFCFBD
:102D500003F0C6EF13F00900F5CFEEFFFFFFEA50D6
:102D6000E262F9D7E950E162F6D71200FFFF001ED8
:102D7000011E021E031E000E002A0122022203224F
:102D80001200EE6AFFFFEA50E262FBD7E950E1620F
:102D9000F8D71200FFFF0134023402E0800E021A5D
:022DA00012001F
:00000001FF
