:020000040000fa
:080000000001040000000000f3
:020000040000fa
:100200006f872000809f2000000188000000000010
:10021000050007000c0007002c0802000000000089
:100220000040da000000fe004440a9000000200069
:100230000000e0000300320000002000a001880060
:100240004440a80000000600209620000100200085
:100250001600370062004000e080480091018800ed
:100260009001ba0062004000e080480091018800df
:100270009002ba0062004000e08048000002eb00fb
:100280006028e10005003a008301e900070033001f
:10029000038009000059eb00040037006128e100e9
:1002a000010032000082eb00050007009101880088
:1002b0001001ba000200e000e6ff3a00000005006d
:1002c000910188008002780062004000e0804800d0
:1002d0003559ba008301e900080032002559ba00f7
:1002e0008301e900050032000400e000f4ff320061
:1002f00015d9ba008301e900f1ff3a0000000600b9
:10030000140020001c013700889fbe008a9fbe0099
:100310008c1f7800330107003a01330003866c001c
:100320006450e100240032006420e1002700320024
:100330006150e100220032006120e1002100320022
:100340008b854200eb07b1000134b800003ab800d9
:100350000804420089844a00013ab8000030b8001d
:100360008880400009014a0004003300000040007a
:1003700081804800020149008b05e900c909dd00c0
:10038000830170000100320013002000c814de0059
:100390004814dd004709de001200b200c808de0084
:1003a000088470002701070001f0a1000cf0a700ed
:1003b00001f0a0001c0137006120e1001e013200a5
:1003c0000801be000200be00f7ff37006150e100e7
:1003d000fcff3a00180137000001be003f01070092
:1003e0000470a70003f0a10003f8a30013003a0073
:1003f0006509b10010003200090035006928e100ec
:100400000200350001002800000005000000400047
:10041000818048008502e900fcff3a0000000600e8
:10042000f88f4200050035008100d1000080d30024
:100430008502e800fcff3a00000006008000eb00a7
:1004400000000500f4ff2f00cb003700889fbe009e
:100450008a9fbe00010578000100e000040035001d
:1004600008003c000000e0002000320005003700da
:1004700060001000e080180002003b0001f02c003a
:100480001a0037000004be006011b8006b0920009c
:100490000982cf00020039000882cf000441b00079
:1004a000694252000e00320008003b008281710058
:1004b000610164008904d1000884d3008b05e80041
:1004c0000442e800f9ff3a00050037000804440040
:1004d00089844c008b05e9000442e900fbff3a00e7
:1004e000d80007000af0a70001f0a0004f05be00e9
:1004f0004f04be000000060003f0a200889fbe006b
:100500008a9fbe008c1f7800b6000700bd00330034
:100510006450e1004f0032006420e10052003200dc
:1005200003826c0007003b000905d0000306d000e1
:10053000820f54000c065d000200390002003200f8
:1005400089017800030678008582550004003d008b
:100550000003fd008103fd008502ea008b85420057
:10056000840f720002003b0060001000e080180061
:100570006011b8000005eb007a28e1000a0039009c
:1005800006007800c75ddd00f707b20087807500c0
:100590002d003700828171000a017800610560003a
:1005a0008180d1000080d3008502e900f9ff3b0083
:1005b000060440008784480002003b0060041400e9
:1005c000e0841c000988a300070032008a817100c2
:1005d00082817100610164008904d1000884d30024
:1005e0008b05e800170037000978a30013003a00d4
:1005f0000b00e000130034008b05e9000804440000
:1006000089844c000a4474000978a3000d003a0064
:100610000b00e000070034008b05e90008044400eb
:1006200089844c0001003a000b0020000978a300e7
:10063000f7ff32000001eb000200370082817100f9
:100640000a0178007f0007000cf0a70001f0a0006d
:10065000750037006420e10002003a00838f6c00cf
:10066000750033000801be000200be006e003700b6
:10067000889fbe008a9fbe008c1f7800590007002b
:100680006000330003866c006450e1002e003200ed
:100690006420e100330032006150e1002f0032009d
:1006a0006120e1003100320085855500eb07b00084
:1006b0000900200008042000050037000804440059
:1006c00089844c000a0031000603430087834b00f5
:1006d0000001530081815b00f8ff33000203be007c
:1006e0000800a0000804440089844c00f6ff39008b
:1006f000c639dd00830173000100320013002000c1
:100700008904d1000884d3000998a30005003200b1
:100710000800a7000300a0008904d1000884d300ca
:100720008b05e8008904d1000884d3000001eb00a8
:100730000281d2004300070001f0a1000cf0a700e5
:1007400001f0a000380037006420e1003a003200d8
:100750000801be000200be00f7ff37006120e10083
:10076000350032006000b800f3ff370000002000c1
:1007700001f82700f0ff3700889fbe008a9fbe0067
:10078000841f7800170007004f0078001100330025
:10079000f0ff2f00838f6c0006003b00040565000e
:1007a0000a00a7000800370009f0a600100020008a
:1007b00008003700820f5400838f5c00030039006b
:1007c0001000200001003e000000200009f0a700fa
:1007d0000000ea004f05be004f04be000000e0002c
:1007e000000006000004be003c0007000003be003d
:1007f0000405be000200be0038000700844f7500eb
:10080000000006000200be006450e1000500360052
:100810006420e100020036000968a30001003a00ec
:100820000800be000160a0004f0678004f05be0022
:100830004f04be0000000600f0ff2f00f1ff27006c
:10084000f9ff370081002000618055000b003d005a
:100850000b00200061fe2f000100e1001d003400ac
:1008600082817100610164008904d1000884d30091
:100870000000e800faff3a00710020006100640007
:1008800003007000020060000900320061044400af
:10089000e0844c000988a500050032008b05e800c3
:1008a0006808e10002003a008904d1000884d300fe
:1008b000f20f20000258e10005003d00c75ddd0099
:1008c000f907b20089807500080078000000060072
:1008d0000bf827008b00780000000500c70ade0037
:1008e000f107b200f50fb20008003200e1cf42007c
:1008f000020032000170a00024000500810f70008a
:10090000010032000408050044000500810f70005a
:1009100002003a00140005008502e90000004000d2
:1009200081c04800fcff3b000170a00024000500ce
:100930000000fa00d202a800d222a800d8a2a80083
:10094000d862a900d882a900da62a900da82a900d7
:10095000d802a900d822a900d842a900da02a90029
:10096000da22a900da42a9000000eb00000e88009c
:10097000011c200091407800c0cfb30000c060008f
:10098000c0e1b700803e2000200e88000000eb0090
:10099000400e8800c901a800c921a800c941a800cb
:1009a000c801a8000000eb00500e8800ca21a80072
:1009b0000040eb0065e8b7000040eb0064e8b700da
:1009c0000040eb0066e8b7000000eb000011880073
:1009d00021a2a8000000eb001011880022e2a8006c
:1009e0002302a80022c2a900de42a800de62a900fc
:1009f000d902a800c642a8008500a9008d00a80061
:100a000021e2a80041158000c00320000080700092
:100a1000401588000000eb003009880000e2240047
:100a2000400988000000eb001009880023c1bf00c6
:100a30007040b30023e1b7002201a8000000eb00e2
:100a4000200988002501a80000fa2000100888006d
:100a50000000eb00200888008460a9008c60a800da
:100a600000e22400600888000000eb008008880095
:100a70000111200091407800f0ccb30000c060006c
:100a800001c2b3000140700010e1b70084c0a900aa
:100a90008cc0a8000080fa00000006000000fa00e8
:100aa0006011b800004080001140800014fe070073
:100ab0000000e00015003d000200200003f82b00bc
:100ac00000408000114080000dfe07000000e000a3
:100ad00004003d000000200001f82b0000408800c9
:100ae00011408800da22a8000040800011408000f8
:100af00001f0a20002002000a34f240002fe070024
:100b000035fe0700b00e88001300370002002000f9
:100b100003f82300004080001140800049fe0700d8
:100b20000000e000040034000000200001f8230071
:100b30000040880011408800da22a900020020004d
:100b4000a34f24000040800011408000eefd07000c
:100b500021fe0700b00e88000080fa0000000600a9
:100b60000400fa004040800051408000604088004e
:100b70007140880030098000cf80de0033fe07001e
:100b8000008fbe002601e20005003d0002002000ab
:100b9000037824001e00be0058fe0700008fbe0030
:100ba0001e00be00404088005140880000712200b5
:100bb0003009880002002400c36124004040800006
:100bc000514080004cfe0700b2fd200093f423004a
:100bd000cdfd070040408800514088004240800021
:100be00053408000604080007140800043fe070059
:100bf000f226210033b02300c3fd07000001be0030
:100c000020408000314080003cfe070020408800ea
:100c10003140880002002400c36924002040800085
:100c20003140800007fe07000000e00004003400af
:100c300000002400c1692400204088003140880061
:100c400002002400c3692c00204080003140800055
:100c5000abfd07000000e00004003d0000002400a0
:100c6000c1692c0020408800314088000080fa00d3
:100c7000000006000000fa00da22a9000000eb00e4
:100c8000100e8800c1e1a800007122003009880020
:100c9000d0a3200071042400204088003140880047
:100ca000b0472100e1f8230040408800514088000f
:100cb0006000b80000408800114088006000b80063
:100cc00000418800114188006000b800e0408800c1
:100cd000f14088000080fa00000006000000fa00e1
:100ce000889fbe004240800053408000a0408000aa
:100cf000b140800000fe0700504388006143880037
:100d0000224080003340800080408000914080007d
:100d1000f9fd070002002000031224007afd0700fd
:100d20000001be005043800061438000f3fd0700d6
:100d300090438800a1438800020020000312240091
:100d400050438000614380006ffd0700c240800077
:100d5000d3408000e9fd07006011b8006afd07007c
:100d600092438000a343800067fd07000001be009e
:100d70000041800011418000e0fd07000041880033
:100d8000114188006011b8000041800011418000cd
:100d90005bfd07000000e00003003d006000b800bc
:100da00000418800114188006011b8004040800077
:100db00051408000a3fd07000000e0002400340043
:100dc0006011b80090438000a14380004efd0700f1
:100dd0000001be00e0408000f1408000c6fd070039
:100de000e0408800f1408800020020000312240047
:100df000504380006143800043fd0700c2408000f3
:100e0000d3408000bdfd07000241800013418000f7
:100e10003dfd0700e2408000f3408000b6fd070082
:100e20000004be00a2702d0033c223009043800056
:100e3000a143800034fd07000001be000800be0091
:100e4000aefd0700004088001140880023003700f5
:100e50006011b80090438000a14380002afd070084
:100e60000001be00e0408000f1408000a3fd0700cb
:100e7000e0408800f14088000200200003122400b6
:100e800050438000614380001ffd0700c240800086
:100e9000d340800099fd070002418000134180008b
:100ea00019fd0700e2408000f340800093fd070039
:100eb0000004be00a2702d0033c2230090438000c6
:100ec000a143800010fd07000001be000800be0025
:100ed0008afd070000408800114088004f04be00d2
:100ee0000080fa00000006000000fa007041800057
:100ef00081418000804088009140880090418000be
:100f0000a1418000a0408800b1408800b04180002d
:100f1000c1418000c0408800d14088006fff0700b9
:100f20003233230033f7230000408000114080005b
:100f300044fd07000000e0000400340030332300cb
:100f400031f723000040880011408800323323002d
:100f500033f72b000040800011408000e8fc0700c0
:100f60000000e00004003d003033230031f72b0087
:100f700000408800114088000080fa000000060050
:100f80000000fa000040eb0067e8b700d4c2bf00e1
:100f90000080fb00610060000000e00006003200fd
:100fa00067c8bf000040e80067e8b7006000b8000d
:100fb0002040880031408800d4c2bf000080fb0080
:100fc0000000d1000080fb00610060000000e00034
:100fd0000300320067c8bf0000c0e80067e8b70040
:100fe000dac2bf000080fb004500de000080fb008d
:100ff000610060000000e0000300320067c8bf002d
:101000006440400067e8b700204080003140800025
:1010100020418800314188004040800051408000dc
:10102000404188005141880067c8bf002ce8b700e4
:101030008040800091408000e0428800f1428800ba
:10104000a0408000b1408000004388001143880028
:101050000080fa00000006000000fa0034fe0700dd
:1010600004ff0700c6ff070024c8bf000000fb0004
:10107000201188006648e200feff32000000eb000d
:101080003008880011e1a800da42a9003ac8bf0080
:101090008000fb0000022000008060000000e000f3
:1010a00004003200aefe07008fff07007bfe070042
:1010b0000b003700aafe07002ec8bf000000fb008f
:1010c000cf80de00e1fc0700020020000330240096
:1010d00067fd070000408800114088006ffe070090
:1010e000a7ff070024c8bf000000fb0020118800f4
:1010f0000040eb0066e8b700deff3700809fbe00cf
:10110000821f78000200fa008500a9000000eb00b1
:101110000008880005e1a8006448e20025003a00c4
:1011200065c8bf000000fb00e28220008200400092
:10113000201180008048780065c8bf000040e800aa
:1011400065e8b7005086200081c0b30090cf100042
:1011500007003c0065c8bf000000fb004282200081
:10116000020040001000fb00201188000200370040
:101170000000eb002011880050862000d1c0b30091
:1011800090cf100023003a000040eb0065e8b70064
:1011900010c0b30064e8b70065c8bf000000fb00e2
:1011a000c2852000020040001000fb0020118800d2
:1011b0001800370065c8bf000000fb00c283200094
:1011c00082004000201180008048780065c8bf0080
:1011d0000040e80065e8b7005086200071c0b30009
:1011e00090cf100007003c0065c8bf000000fb0066
:1011f000c2852000020040001000fb00000f7800b4
:10120000020037000000eb00000f78009e0078001d
:10121000211188000080fa004f0178004f00be00c5
:1012200000400600809fbe000000fa008460a90014
:1012300005e1a90000c2b3006548e30006003a00da
:101240004086200011c0b30090cf100002003a0089
:1012500010c0b30066e8b7000040eb0064e8b700d8
:101260000040eb0065e8b7000080fa004f00be00c8
:10127000004006003600f800809fbe00829fbe003e
:10128000849fbe00869fbe000000fa0084c0a900b3
:1012900011e1a900da42a8006000b800004088000f
:1012a00011408800fdfd07000080fa004f03be00da
:1012b0004f02be004f01be004f00be003600f900d5
:0412c00000400600e4
:020000040000fa
:1012c400000800007600000000000000000000009c
:020000040000fa
:100008006a0900006a0900006a0900006a0900001c
:100018006a0900006a0900006a0900006a0900000c
:100028006a0900006a0900006a0900001209000054
:100038006a0900006a0900003a0900006a0900001c
:100048007e0800006a0900006a0900006a090000c9
:100058006a0900006a0900006a0900006a090000cc
:100068006a0900006a0900006a0900006a090000bc
:100078006a0900006a0900006a0900006a090000ac
:100088006a0900006a0900006a0900006a0900009c
:100098006a0900006a0900006a0900006a0900008c
:1000a8006a0900006a0900006a0900006a0900007c
:1000b8006a0900006a0900006a0900006a0900006c
:1000c8006a0900006a0900006a0900006a0900005c
:1000d8006a0900006a0900006a0900006a0900004c
:1000e8006a0900006a0900006a0900006a0900003c
:0800f8006a0900006a0900001a
:020000040000fa
:100108006a0900006a0900006a0900006a0900001b
:100118006a0900006a0900006a0900006a0900000b
:100128006a0900006a0900006a0900001209000053
:100138006a0900006a0900003a0900006a0900001b
:100148007e0800006a0900006a0900006a090000c8
:100158006a0900006a0900006a0900006a090000cb
:100168006a0900006a0900006a0900006a090000bb
:100178006a0900006a0900006a0900006a090000ab
:100188006a0900006a0900006a0900006a0900009b
:100198006a0900006a0900006a0900006a0900008b
:1001a8006a0900006a0900006a0900006a0900007b
:1001b8006a0900006a0900006a0900006a0900006b
:1001c8006a0900006a0900006a0900006a0900005b
:1001d8006a0900006a0900006a0900006a0900004b
:1001e8006a0900006a0900006a0900006a0900003b
:0801f8006a0900006a09000019
:020000040000fa
:0412d4000000fe0018
:00000001FF
